{
  "contractName": "DynamicWeatherCard",
  "symbol": "DWC",
  "chain_symbol": "MATIC",
  "chain": "Polygon Mumbai",
  "chain_id": 80001,
  "address": "0x1c6A6E29cECb6F52c5418a88F70C7c64ee06c787",
  "abi": [
    {
      "inputs": [
        {
          "internalType": "string",
          "name": "token",
          "type": "string"
        }
      ],
      "stateMutability": "nonpayable",
      "type": "constructor"
    },
    {
      "anonymous": false,
      "inputs": [
        {
          "indexed": true,
          "internalType": "address",
          "name": "owner",
          "type": "address"
        },
        {
          "indexed": true,
          "internalType": "address",
          "name": "approved",
          "type": "address"
        },
        {
          "indexed": true,
          "internalType": "uint256",
          "name": "tokenId",
          "type": "uint256"
        }
      ],
      "name": "Approval",
      "type": "event"
    },
    {
      "anonymous": false,
      "inputs": [
        {
          "indexed": true,
          "internalType": "address",
          "name": "owner",
          "type": "address"
        },
        {
          "indexed": true,
          "internalType": "address",
          "name": "operator",
          "type": "address"
        },
        {
          "indexed": false,
          "internalType": "bool",
          "name": "approved",
          "type": "bool"
        }
      ],
      "name": "ApprovalForAll",
      "type": "event"
    },
    {
      "anonymous": false,
      "inputs": [
        {
          "indexed": true,
          "internalType": "bytes32",
          "name": "id",
          "type": "bytes32"
        }
      ],
      "name": "ChainlinkCancelled",
      "type": "event"
    },
    {
      "anonymous": false,
      "inputs": [
        {
          "indexed": true,
          "internalType": "bytes32",
          "name": "id",
          "type": "bytes32"
        }
      ],
      "name": "ChainlinkFulfilled",
      "type": "event"
    },
    {
      "anonymous": false,
      "inputs": [
        {
          "indexed": true,
          "internalType": "bytes32",
          "name": "id",
          "type": "bytes32"
        }
      ],
      "name": "ChainlinkRequested",
      "type": "event"
    },
    {
      "anonymous": false,
      "inputs": [
        {
          "indexed": true,
          "internalType": "address",
          "name": "from",
          "type": "address"
        },
        {
          "indexed": true,
          "internalType": "address",
          "name": "to",
          "type": "address"
        }
      ],
      "name": "OwnershipTransferRequested",
      "type": "event"
    },
    {
      "anonymous": false,
      "inputs": [
        {
          "indexed": true,
          "internalType": "address",
          "name": "from",
          "type": "address"
        },
        {
          "indexed": true,
          "internalType": "address",
          "name": "to",
          "type": "address"
        }
      ],
      "name": "OwnershipTransferred",
      "type": "event"
    },
    {
      "anonymous": false,
      "inputs": [
        {
          "indexed": false,
          "internalType": "address",
          "name": "account",
          "type": "address"
        }
      ],
      "name": "Paused",
      "type": "event"
    },
    {
      "anonymous": false,
      "inputs": [
        {
          "indexed": true,
          "internalType": "bytes32",
          "name": "role",
          "type": "bytes32"
        },
        {
          "indexed": true,
          "internalType": "bytes32",
          "name": "previousAdminRole",
          "type": "bytes32"
        },
        {
          "indexed": true,
          "internalType": "bytes32",
          "name": "newAdminRole",
          "type": "bytes32"
        }
      ],
      "name": "RoleAdminChanged",
      "type": "event"
    },
    {
      "anonymous": false,
      "inputs": [
        {
          "indexed": true,
          "internalType": "bytes32",
          "name": "role",
          "type": "bytes32"
        },
        {
          "indexed": true,
          "internalType": "address",
          "name": "account",
          "type": "address"
        },
        {
          "indexed": true,
          "internalType": "address",
          "name": "sender",
          "type": "address"
        }
      ],
      "name": "RoleGranted",
      "type": "event"
    },
    {
      "anonymous": false,
      "inputs": [
        {
          "indexed": true,
          "internalType": "bytes32",
          "name": "role",
          "type": "bytes32"
        },
        {
          "indexed": true,
          "internalType": "address",
          "name": "account",
          "type": "address"
        },
        {
          "indexed": true,
          "internalType": "address",
          "name": "sender",
          "type": "address"
        }
      ],
      "name": "RoleRevoked",
      "type": "event"
    },
    {
      "anonymous": false,
      "inputs": [
        {
          "indexed": true,
          "internalType": "address",
          "name": "from",
          "type": "address"
        },
        {
          "indexed": true,
          "internalType": "address",
          "name": "to",
          "type": "address"
        },
        {
          "indexed": true,
          "internalType": "uint256",
          "name": "tokenId",
          "type": "uint256"
        }
      ],
      "name": "Transfer",
      "type": "event"
    },
    {
      "anonymous": false,
      "inputs": [
        {
          "indexed": false,
          "internalType": "address",
          "name": "account",
          "type": "address"
        }
      ],
      "name": "Unpaused",
      "type": "event"
    },
    {
      "inputs": [],
      "name": "DEFAULT_ADMIN_ROLE",
      "outputs": [
        {
          "internalType": "bytes32",
          "name": "",
          "type": "bytes32"
        }
      ],
      "stateMutability": "view",
      "type": "function",
      "constant": true
    },
    {
      "inputs": [],
      "name": "PAUSER_ROLE",
      "outputs": [
        {
          "internalType": "bytes32",
          "name": "",
          "type": "bytes32"
        }
      ],
      "stateMutability": "view",
      "type": "function",
      "constant": true
    },
    {
      "inputs": [
        {
          "internalType": "string",
          "name": "",
          "type": "string"
        }
      ],
      "name": "_cityToPollution",
      "outputs": [
        {
          "internalType": "uint256",
          "name": "",
          "type": "uint256"
        }
      ],
      "stateMutability": "view",
      "type": "function",
      "constant": true
    },
    {
      "inputs": [
        {
          "internalType": "bytes32",
          "name": "",
          "type": "bytes32"
        }
      ],
      "name": "_requestIdToCity",
      "outputs": [
        {
          "internalType": "string",
          "name": "",
          "type": "string"
        }
      ],
      "stateMutability": "view",
      "type": "function",
      "constant": true
    },
    {
      "inputs": [
        {
          "internalType": "uint256",
          "name": "",
          "type": "uint256"
        }
      ],
      "name": "_tokenIdToCity",
      "outputs": [
        {
          "internalType": "string",
          "name": "",
          "type": "string"
        }
      ],
      "stateMutability": "view",
      "type": "function",
      "constant": true
    },
    {
      "inputs": [],
      "name": "acceptOwnership",
      "outputs": [],
      "stateMutability": "nonpayable",
      "type": "function"
    },
    {
      "inputs": [
        {
          "internalType": "address",
          "name": "to",
          "type": "address"
        },
        {
          "internalType": "uint256",
          "name": "tokenId",
          "type": "uint256"
        }
      ],
      "name": "approve",
      "outputs": [],
      "stateMutability": "nonpayable",
      "type": "function"
    },
    {
      "inputs": [
        {
          "internalType": "address",
          "name": "owner",
          "type": "address"
        }
      ],
      "name": "balanceOf",
      "outputs": [
        {
          "internalType": "uint256",
          "name": "",
          "type": "uint256"
        }
      ],
      "stateMutability": "view",
      "type": "function",
      "constant": true
    },
    {
      "inputs": [
        {
          "internalType": "uint256",
          "name": "tokenId",
          "type": "uint256"
        }
      ],
      "name": "burn",
      "outputs": [],
      "stateMutability": "nonpayable",
      "type": "function"
    },
    {
      "inputs": [
        {
          "internalType": "uint256",
          "name": "tokenId",
          "type": "uint256"
        }
      ],
      "name": "getApproved",
      "outputs": [
        {
          "internalType": "address",
          "name": "",
          "type": "address"
        }
      ],
      "stateMutability": "view",
      "type": "function",
      "constant": true
    },
    {
      "inputs": [
        {
          "internalType": "bytes32",
          "name": "role",
          "type": "bytes32"
        }
      ],
      "name": "getRoleAdmin",
      "outputs": [
        {
          "internalType": "bytes32",
          "name": "",
          "type": "bytes32"
        }
      ],
      "stateMutability": "view",
      "type": "function",
      "constant": true
    },
    {
      "inputs": [
        {
          "internalType": "bytes32",
          "name": "role",
          "type": "bytes32"
        },
        {
          "internalType": "address",
          "name": "account",
          "type": "address"
        }
      ],
      "name": "grantRole",
      "outputs": [],
      "stateMutability": "nonpayable",
      "type": "function"
    },
    {
      "inputs": [
        {
          "internalType": "bytes32",
          "name": "role",
          "type": "bytes32"
        },
        {
          "internalType": "address",
          "name": "account",
          "type": "address"
        }
      ],
      "name": "hasRole",
      "outputs": [
        {
          "internalType": "bool",
          "name": "",
          "type": "bool"
        }
      ],
      "stateMutability": "view",
      "type": "function",
      "constant": true
    },
    {
      "inputs": [],
      "name": "interval",
      "outputs": [
        {
          "internalType": "uint256",
          "name": "",
          "type": "uint256"
        }
      ],
      "stateMutability": "view",
      "type": "function",
      "constant": true
    },
    {
      "inputs": [
        {
          "internalType": "address",
          "name": "owner",
          "type": "address"
        },
        {
          "internalType": "address",
          "name": "operator",
          "type": "address"
        }
      ],
      "name": "isApprovedForAll",
      "outputs": [
        {
          "internalType": "bool",
          "name": "",
          "type": "bool"
        }
      ],
      "stateMutability": "view",
      "type": "function",
      "constant": true
    },
    {
      "inputs": [],
      "name": "lastTimeStamp",
      "outputs": [
        {
          "internalType": "uint256",
          "name": "",
          "type": "uint256"
        }
      ],
      "stateMutability": "view",
      "type": "function",
      "constant": true
    },
    {
      "inputs": [],
      "name": "name",
      "outputs": [
        {
          "internalType": "string",
          "name": "",
          "type": "string"
        }
      ],
      "stateMutability": "view",
      "type": "function",
      "constant": true
    },
    {
      "inputs": [],
      "name": "owner",
      "outputs": [
        {
          "internalType": "address",
          "name": "",
          "type": "address"
        }
      ],
      "stateMutability": "view",
      "type": "function",
      "constant": true
    },
    {
      "inputs": [
        {
          "internalType": "uint256",
          "name": "tokenId",
          "type": "uint256"
        }
      ],
      "name": "ownerOf",
      "outputs": [
        {
          "internalType": "address",
          "name": "",
          "type": "address"
        }
      ],
      "stateMutability": "view",
      "type": "function",
      "constant": true
    },
    {
      "inputs": [],
      "name": "paused",
      "outputs": [
        {
          "internalType": "bool",
          "name": "",
          "type": "bool"
        }
      ],
      "stateMutability": "view",
      "type": "function",
      "constant": true
    },
    {
      "inputs": [
        {
          "internalType": "bytes32",
          "name": "role",
          "type": "bytes32"
        },
        {
          "internalType": "address",
          "name": "account",
          "type": "address"
        }
      ],
      "name": "renounceRole",
      "outputs": [],
      "stateMutability": "nonpayable",
      "type": "function"
    },
    {
      "inputs": [
        {
          "internalType": "bytes32",
          "name": "role",
          "type": "bytes32"
        },
        {
          "internalType": "address",
          "name": "account",
          "type": "address"
        }
      ],
      "name": "revokeRole",
      "outputs": [],
      "stateMutability": "nonpayable",
      "type": "function"
    },
    {
      "inputs": [
        {
          "internalType": "address",
          "name": "from",
          "type": "address"
        },
        {
          "internalType": "address",
          "name": "to",
          "type": "address"
        },
        {
          "internalType": "uint256",
          "name": "tokenId",
          "type": "uint256"
        }
      ],
      "name": "safeTransferFrom",
      "outputs": [],
      "stateMutability": "nonpayable",
      "type": "function"
    },
    {
      "inputs": [
        {
          "internalType": "address",
          "name": "from",
          "type": "address"
        },
        {
          "internalType": "address",
          "name": "to",
          "type": "address"
        },
        {
          "internalType": "uint256",
          "name": "tokenId",
          "type": "uint256"
        },
        {
          "internalType": "bytes",
          "name": "data",
          "type": "bytes"
        }
      ],
      "name": "safeTransferFrom",
      "outputs": [],
      "stateMutability": "nonpayable",
      "type": "function"
    },
    {
      "inputs": [
        {
          "internalType": "address",
          "name": "operator",
          "type": "address"
        },
        {
          "internalType": "bool",
          "name": "approved",
          "type": "bool"
        }
      ],
      "name": "setApprovalForAll",
      "outputs": [],
      "stateMutability": "nonpayable",
      "type": "function"
    },
    {
      "inputs": [],
      "name": "symbol",
      "outputs": [
        {
          "internalType": "string",
          "name": "",
          "type": "string"
        }
      ],
      "stateMutability": "view",
      "type": "function",
      "constant": true
    },
    {
      "inputs": [
        {
          "internalType": "address",
          "name": "from",
          "type": "address"
        },
        {
          "internalType": "address",
          "name": "to",
          "type": "address"
        },
        {
          "internalType": "uint256",
          "name": "tokenId",
          "type": "uint256"
        }
      ],
      "name": "transferFrom",
      "outputs": [],
      "stateMutability": "nonpayable",
      "type": "function"
    },
    {
      "inputs": [
        {
          "internalType": "address",
          "name": "to",
          "type": "address"
        }
      ],
      "name": "transferOwnership",
      "outputs": [],
      "stateMutability": "nonpayable",
      "type": "function"
    },
    {
      "inputs": [
        {
          "internalType": "string",
          "name": "token",
          "type": "string"
        }
      ],
      "name": "setWaqiToken",
      "outputs": [],
      "stateMutability": "nonpayable",
      "type": "function"
    },
    {
      "inputs": [],
      "name": "pause",
      "outputs": [],
      "stateMutability": "nonpayable",
      "type": "function"
    },
    {
      "inputs": [],
      "name": "unpause",
      "outputs": [],
      "stateMutability": "nonpayable",
      "type": "function"
    },
    {
      "inputs": [
        {
          "internalType": "address",
          "name": "to",
          "type": "address"
        },
        {
          "internalType": "string",
          "name": "city",
          "type": "string"
        }
      ],
      "name": "safeMint",
      "outputs": [],
      "stateMutability": "nonpayable",
      "type": "function"
    },
    {
      "inputs": [
        {
          "internalType": "string",
          "name": "_city",
          "type": "string"
        }
      ],
      "name": "requestPollutionData",
      "outputs": [
        {
          "internalType": "bytes32",
          "name": "",
          "type": "bytes32"
        }
      ],
      "stateMutability": "nonpayable",
      "type": "function"
    },
    {
      "inputs": [
        {
          "internalType": "bytes32",
          "name": "_requestId",
          "type": "bytes32"
        },
        {
          "internalType": "uint256",
          "name": "_pollution",
          "type": "uint256"
        }
      ],
      "name": "fulfill",
      "outputs": [],
      "stateMutability": "nonpayable",
      "type": "function"
    },
    {
      "inputs": [
        {
          "internalType": "bytes",
          "name": "",
          "type": "bytes"
        }
      ],
      "name": "checkUpkeep",
      "outputs": [
        {
          "internalType": "bool",
          "name": "upkeepNeeded",
          "type": "bool"
        },
        {
          "internalType": "bytes",
          "name": "",
          "type": "bytes"
        }
      ],
      "stateMutability": "view",
      "type": "function",
      "constant": true
    },
    {
      "inputs": [
        {
          "internalType": "bytes",
          "name": "",
          "type": "bytes"
        }
      ],
      "name": "performUpkeep",
      "outputs": [],
      "stateMutability": "nonpayable",
      "type": "function"
    },
    {
      "inputs": [],
      "name": "withdrawLink",
      "outputs": [],
      "stateMutability": "nonpayable",
      "type": "function"
    },
    {
      "inputs": [],
      "name": "updateTokens",
      "outputs": [],
      "stateMutability": "nonpayable",
      "type": "function"
    },
    {
      "inputs": [
        {
          "internalType": "uint256",
          "name": "tokenId",
          "type": "uint256"
        }
      ],
      "name": "updateToken",
      "outputs": [],
      "stateMutability": "nonpayable",
      "type": "function"
    },
    {
      "inputs": [
        {
          "internalType": "uint256",
          "name": "tokenId",
          "type": "uint256"
        }
      ],
      "name": "tokenURI",
      "outputs": [
        {
          "internalType": "string",
          "name": "",
          "type": "string"
        }
      ],
      "stateMutability": "view",
      "type": "function",
      "constant": true
    },
    {
      "inputs": [
        {
          "internalType": "bytes4",
          "name": "interfaceId",
          "type": "bytes4"
        }
      ],
      "name": "supportsInterface",
      "outputs": [
        {
          "internalType": "bool",
          "name": "",
          "type": "bool"
        }
      ],
      "stateMutability": "view",
      "type": "function",
      "constant": true
    }
  ],
  "bytecode": "0x60806040526001600d553480156200001657600080fd5b50604051620072e2380380620072e283398181016040528101906200003c919062000b28565b338060006040518060400160405280601281526020017f44796e616d6963576561746865724361726400000000000000000000000000008152506040518060400160405280600381526020017f44574300000000000000000000000000000000000000000000000000000000008152508160009081620000bd919062000dc4565b508060019081620000cf919062000dc4565b5050506000600760006101000a81548160ff021916908315150217905550600073ffffffffffffffffffffffffffffffffffffffff168273ffffffffffffffffffffffffffffffffffffffff16036200015f576040517f08c379a0000000000000000000000000000000000000000000000000000000008152600401620001569062000f0c565b60405180910390fd5b81600f60006101000a81548173ffffffffffffffffffffffffffffffffffffffff021916908373ffffffffffffffffffffffffffffffffffffffff160217905550600073ffffffffffffffffffffffffffffffffffffffff168173ffffffffffffffffffffffffffffffffffffffff1614620001e757620001e681620002f660201b60201c565b5b505050620001ff6000801b336200042760201b60201c565b620002317f65d7a28e3265b37a6474929f336521b332c1681b933f6cb9f3376673440d862a336200042760201b60201c565b62000242816200051960201b60201c565b6200026773326c977e6efc84e512bb9c30f76e30c160ed06fb6200054460201b60201c565b6200028c7340193c8518bb267228fc409a613bdbd8ec5a97b36200058860201b60201c565b7f6361393833363663633733313439353762386330313263373266303561656562601281905550600a670de0b6b3a76400006001620002cc919062000f5d565b620002d8919062000fd7565b60138190555062015180601581905550426016819055505062001314565b3373ffffffffffffffffffffffffffffffffffffffff168173ffffffffffffffffffffffffffffffffffffffff160362000367576040517f08c379a00000000000000000000000000000000000000000000000000000000081526004016200035e906200105f565b60405180910390fd5b80601060006101000a81548173ffffffffffffffffffffffffffffffffffffffff021916908373ffffffffffffffffffffffffffffffffffffffff1602179055508073ffffffffffffffffffffffffffffffffffffffff16600f60009054906101000a900473ffffffffffffffffffffffffffffffffffffffff1673ffffffffffffffffffffffffffffffffffffffff167fed8889f560326eb138920d842192f0eb3dd22b4f139c87a2c57538e05bae127860405160405180910390a350565b620004398282620005cc60201b60201c565b620005155760016008600084815260200190815260200160002060000160008373ffffffffffffffffffffffffffffffffffffffff1673ffffffffffffffffffffffffffffffffffffffff16815260200190815260200160002060006101000a81548160ff021916908315150217905550620004ba6200063760201b60201c565b73ffffffffffffffffffffffffffffffffffffffff168173ffffffffffffffffffffffffffffffffffffffff16837f2f8788117e7eff1d82e926ec794901d17c78024a50270940304540a733656f0d60405160405180910390a45b5050565b6000801b6200052e816200063f60201b60201c565b81601490816200053f919062000dc4565b505050565b80600b60006101000a81548173ffffffffffffffffffffffffffffffffffffffff021916908373ffffffffffffffffffffffffffffffffffffffff16021790555050565b80600c60006101000a81548173ffffffffffffffffffffffffffffffffffffffff021916908373ffffffffffffffffffffffffffffffffffffffff16021790555050565b60006008600084815260200190815260200160002060000160008373ffffffffffffffffffffffffffffffffffffffff1673ffffffffffffffffffffffffffffffffffffffff16815260200190815260200160002060009054906101000a900460ff16905092915050565b600033905090565b6200066081620006546200063760201b60201c565b6200066360201b60201c565b50565b620006758282620005cc60201b60201c565b62000701576200068b816200070560201b60201c565b620006a18360001c60206200073a60201b60201c565b604051602001620006b492919062001163565b6040516020818303038152906040526040517f08c379a0000000000000000000000000000000000000000000000000000000008152600401620006f89190620011e6565b60405180910390fd5b5050565b6060620007338273ffffffffffffffffffffffffffffffffffffffff16601460ff166200073a60201b60201c565b9050919050565b6060600060028360026200074f919062000f5d565b6200075b91906200120a565b67ffffffffffffffff811115620007775762000776620009c4565b5b6040519080825280601f01601f191660200182016040528015620007aa5781602001600182028036833780820191505090505b5090507f300000000000000000000000000000000000000000000000000000000000000081600081518110620007e557620007e462001245565b5b60200101907effffffffffffffffffffffffffffffffffffffffffffffffffffffffffffff1916908160001a9053507f7800000000000000000000000000000000000000000000000000000000000000816001815181106200084c576200084b62001245565b5b60200101907effffffffffffffffffffffffffffffffffffffffffffffffffffffffffffff1916908160001a905350600060018460026200088e919062000f5d565b6200089a91906200120a565b90505b600181111562000944577f3031323334353637383961626364656600000000000000000000000000000000600f861660108110620008e057620008df62001245565b5b1a60f81b828281518110620008fa57620008f962001245565b5b60200101907effffffffffffffffffffffffffffffffffffffffffffffffffffffffffffff1916908160001a905350600485901c9450806200093c9062001274565b90506200089d565b50600084146200098b576040517f08c379a00000000000000000000000000000000000000000000000000000000081526004016200098290620012f2565b60405180910390fd5b8091505092915050565b6000604051905090565b600080fd5b600080fd5b600080fd5b600080fd5b6000601f19601f8301169050919050565b7f4e487b7100000000000000000000000000000000000000000000000000000000600052604160045260246000fd5b620009fe82620009b3565b810181811067ffffffffffffffff8211171562000a205762000a1f620009c4565b5b80604052505050565b600062000a3562000995565b905062000a438282620009f3565b919050565b600067ffffffffffffffff82111562000a665762000a65620009c4565b5b62000a7182620009b3565b9050602081019050919050565b60005b8381101562000a9e57808201518184015260208101905062000a81565b60008484015250505050565b600062000ac162000abb8462000a48565b62000a29565b90508281526020810184848401111562000ae05762000adf620009ae565b5b62000aed84828562000a7e565b509392505050565b600082601f83011262000b0d5762000b0c620009a9565b5b815162000b1f84826020860162000aaa565b91505092915050565b60006020828403121562000b415762000b406200099f565b5b600082015167ffffffffffffffff81111562000b625762000b61620009a4565b5b62000b708482850162000af5565b91505092915050565b600081519050919050565b7f4e487b7100000000000000000000000000000000000000000000000000000000600052602260045260246000fd5b6000600282049050600182168062000bcc57607f821691505b60208210810362000be25762000be162000b84565b5b50919050565b60008190508160005260206000209050919050565b60006020601f8301049050919050565b600082821b905092915050565b60006008830262000c4c7fffffffffffffffffffffffffffffffffffffffffffffffffffffffffffffffff8262000c0d565b62000c58868362000c0d565b95508019841693508086168417925050509392505050565b6000819050919050565b6000819050919050565b600062000ca562000c9f62000c998462000c70565b62000c7a565b62000c70565b9050919050565b6000819050919050565b62000cc18362000c84565b62000cd962000cd08262000cac565b84845462000c1a565b825550505050565b600090565b62000cf062000ce1565b62000cfd81848462000cb6565b505050565b5b8181101562000d255762000d1960008262000ce6565b60018101905062000d03565b5050565b601f82111562000d745762000d3e8162000be8565b62000d498462000bfd565b8101602085101562000d59578190505b62000d7162000d688562000bfd565b83018262000d02565b50505b505050565b600082821c905092915050565b600062000d996000198460080262000d79565b1980831691505092915050565b600062000db4838362000d86565b9150826002028217905092915050565b62000dcf8262000b79565b67ffffffffffffffff81111562000deb5762000dea620009c4565b5b62000df7825462000bb3565b62000e0482828562000d29565b600060209050601f83116001811462000e3c576000841562000e27578287015190505b62000e33858262000da6565b86555062000ea3565b601f19841662000e4c8662000be8565b60005b8281101562000e765784890151825560018201915060208501945060208101905062000e4f565b8683101562000e96578489015162000e92601f89168262000d86565b8355505b6001600288020188555050505b505050505050565b600082825260208201905092915050565b7f43616e6e6f7420736574206f776e657220746f207a65726f0000000000000000600082015250565b600062000ef460188362000eab565b915062000f018262000ebc565b602082019050919050565b6000602082019050818103600083015262000f278162000ee5565b9050919050565b7f4e487b7100000000000000000000000000000000000000000000000000000000600052601160045260246000fd5b600062000f6a8262000c70565b915062000f778362000c70565b925082820262000f878162000c70565b9150828204841483151762000fa15762000fa062000f2e565b5b5092915050565b7f4e487b7100000000000000000000000000000000000000000000000000000000600052601260045260246000fd5b600062000fe48262000c70565b915062000ff18362000c70565b92508262001004576200100362000fa8565b5b828204905092915050565b7f43616e6e6f74207472616e7366657220746f2073656c66000000000000000000600082015250565b60006200104760178362000eab565b915062001054826200100f565b602082019050919050565b600060208201905081810360008301526200107a8162001038565b9050919050565b600081905092915050565b7f416363657373436f6e74726f6c3a206163636f756e7420000000000000000000600082015250565b6000620010c460178362001081565b9150620010d1826200108c565b601782019050919050565b6000620010e98262000b79565b620010f5818562001081565b93506200110781856020860162000a7e565b80840191505092915050565b7f206973206d697373696e6720726f6c6520000000000000000000000000000000600082015250565b60006200114b60118362001081565b9150620011588262001113565b601182019050919050565b60006200117082620010b5565b91506200117e8285620010dc565b91506200118b826200113c565b9150620011998284620010dc565b91508190509392505050565b6000620011b28262000b79565b620011be818562000eab565b9350620011d081856020860162000a7e565b620011db81620009b3565b840191505092915050565b60006020820190508181036000830152620012028184620011a5565b905092915050565b6000620012178262000c70565b9150620012248362000c70565b92508282019050808211156200123f576200123e62000f2e565b5b92915050565b7f4e487b7100000000000000000000000000000000000000000000000000000000600052603260045260246000fd5b6000620012818262000c70565b91506000820362001297576200129662000f2e565b5b600182039050919050565b7f537472696e67733a20686578206c656e67746820696e73756666696369656e74600082015250565b6000620012da60208362000eab565b9150620012e782620012a2565b602082019050919050565b600060208201905081810360008301526200130d81620012cb565b9050919050565b615fbe80620013246000396000f3fe608060405234801561001057600080fd5b50600436106102535760003560e01c806370a0823111610146578063a217fddf116100c3578063d10cb22511610087578063d10cb225146106d1578063d204c45e146106ed578063d547741f14610709578063e63ab1e914610725578063e985e9c514610743578063f2fde38b1461077357610253565b8063a217fddf1461061b578063a22cb46514610639578063b88d4fde14610655578063c2807bbc14610671578063c87b56dd146106a157610253565b80638dc654a21161010a5780638dc654a21461057557806391d148541461057f578063947a36fb146105af57806395d89b41146105cd5780639f2d9957146105eb57610253565b806370a08231146104f757806379ba5097146105275780638456cb59146105315780638d5b98d51461053b5780638da5cb5b1461055757610253565b806337397065116101d45780634357855e116101985780634357855e146104405780634585e33b1461045c5780635c975abb146104785780636352211e146104965780636e04ff0d146104c657610253565b806337397065146103b05780633f3b3b27146103e05780633f4ba83a146103fe57806342842e0e1461040857806342966c681461042457610253565b806323b872dd1161021b57806323b872dd14610322578063248a9ca31461033e5780632f2ff15d1461036e5780633378c0141461038a57806336568abe1461039457610253565b806301ffc9a71461025857806306fdde0314610288578063081812fc146102a6578063095ea7b3146102d657806317cd31d5146102f2575b600080fd5b610272600480360381019061026d9190613dfe565b61078f565b60405161027f9190613e46565b60405180910390f35b6102906107a1565b60405161029d9190613ef1565b60405180910390f35b6102c060048036038101906102bb9190613f49565b610833565b6040516102cd9190613fb7565b60405180910390f35b6102f060048036038101906102eb9190613ffe565b610879565b005b61030c60048036038101906103079190614173565b610990565b60405161031991906141d5565b60405180910390f35b61033c600480360381019061033791906141f0565b610ad5565b005b6103586004803603810190610353919061426f565b610b35565b60405161036591906141d5565b60405180910390f35b6103886004803603810190610383919061429c565b610b55565b005b610392610b76565b005b6103ae60048036038101906103a9919061429c565b610bde565b005b6103ca60048036038101906103c59190613f49565b610c61565b6040516103d79190613ef1565b60405180910390f35b6103e8610d01565b6040516103f591906142eb565b60405180910390f35b610406610d07565b005b610422600480360381019061041d91906141f0565b610d3c565b005b61043e60048036038101906104399190613f49565b610d5c565b005b61045a60048036038101906104559190614306565b610db8565b005b610476600480360381019061047191906143a6565b610eff565b005b610480610f2a565b60405161048d9190613e46565b60405180910390f35b6104b060048036038101906104ab9190613f49565b610f41565b6040516104bd9190613fb7565b60405180910390f35b6104e060048036038101906104db91906143a6565b610fc7565b6040516104ee929190614448565b60405180910390f35b610511600480360381019061050c9190614478565b610fe6565b60405161051e91906142eb565b60405180910390f35b61052f61109d565b005b610539611234565b005b61055560048036038101906105509190613f49565b611269565b005b61055f611351565b60405161056c9190613fb7565b60405180910390f35b61057d61137b565b005b6105996004803603810190610594919061429c565b6114ce565b6040516105a69190613e46565b60405180910390f35b6105b7611539565b6040516105c491906142eb565b60405180910390f35b6105d561153f565b6040516105e29190613ef1565b60405180910390f35b61060560048036038101906106009190614173565b6115d1565b60405161061291906142eb565b60405180910390f35b6106236115ff565b60405161063091906141d5565b60405180910390f35b610653600480360381019061064e91906144d1565b611606565b005b61066f600480360381019061066a91906145b2565b61161c565b005b61068b6004803603810190610686919061426f565b61167e565b6040516106989190613ef1565b60405180910390f35b6106bb60048036038101906106b69190613f49565b61171e565b6040516106c89190613ef1565b60405180910390f35b6106eb60048036038101906106e69190614173565b611730565b005b61070760048036038101906107029190614635565b611751565b005b610723600480360381019061071e919061429c565b6117ea565b005b61072d61180b565b60405161073a91906141d5565b60405180910390f35b61075d60048036038101906107589190614691565b61182f565b60405161076a9190613e46565b60405180910390f35b61078d60048036038101906107889190614478565b6118c3565b005b600061079a826118d7565b9050919050565b6060600080546107b090614700565b80601f01602080910402602001604051908101604052809291908181526020018280546107dc90614700565b80156108295780601f106107fe57610100808354040283529160200191610829565b820191906000526020600020905b81548152906001019060200180831161080c57829003601f168201915b5050505050905090565b600061083e82611951565b6004600083815260200190815260200160002060009054906101000a900473ffffffffffffffffffffffffffffffffffffffff169050919050565b600061088482610f41565b90508073ffffffffffffffffffffffffffffffffffffffff168373ffffffffffffffffffffffffffffffffffffffff16036108f4576040517f08c379a00000000000000000000000000000000000000000000000000000000081526004016108eb906147a3565b60405180910390fd5b8073ffffffffffffffffffffffffffffffffffffffff1661091361199c565b73ffffffffffffffffffffffffffffffffffffffff16148061094257506109418161093c61199c565b61182f565b5b610981576040517f08c379a000000000000000000000000000000000000000000000000000000000815260040161097890614835565b60405180910390fd5b61098b83836119a4565b505050565b6000806109a760125430634357855e60e01b611a5d565b905060008360146040516020016109bf9291906149c1565b6040516020818303038152906040529050610a1a6040518060400160405280600381526020017f67657400000000000000000000000000000000000000000000000000000000008152508284611a8e9092919063ffffffff16565b610a996040518060400160405280600481526020017f70617468000000000000000000000000000000000000000000000000000000008152506040518060400160405280600881526020017f646174612c61716900000000000000000000000000000000000000000000000081525084611a8e9092919063ffffffff16565b6000610aa783601354611ac1565b905084601860008381526020019081526020016000209081610ac99190614b92565b50809350505050919050565b610ae6610ae061199c565b82611af8565b610b25576040517f08c379a0000000000000000000000000000000000000000000000000000000008152600401610b1c90614cd6565b60405180910390fd5b610b30838383611b8d565b505050565b600060086000838152602001908152602001600020600101549050919050565b610b5e82610b35565b610b6781611e86565b610b718383611e9a565b505050565b6000801b610b8381611e86565b6000610b8f6011611f7b565b9050600080600190505b600183610ba69190614d25565b811015610bd857610bb682611269565b600182610bc39190614d25565b91508080610bd090614d59565b915050610b99565b50505050565b610be661199c565b73ffffffffffffffffffffffffffffffffffffffff168173ffffffffffffffffffffffffffffffffffffffff1614610c53576040517f08c379a0000000000000000000000000000000000000000000000000000000008152600401610c4a90614e13565b60405180910390fd5b610c5d8282611f89565b5050565b60196020528060005260406000206000915090508054610c8090614700565b80601f0160208091040260200160405190810160405280929190818152602001828054610cac90614700565b8015610cf95780601f10610cce57610100808354040283529160200191610cf9565b820191906000526020600020905b815481529060010190602001808311610cdc57829003601f168201915b505050505081565b60165481565b7f65d7a28e3265b37a6474929f336521b332c1681b933f6cb9f3376673440d862a610d3181611e86565b610d3961206b565b50565b610d578383836040518060200160405280600081525061161c565b505050565b610d6d610d6761199c565b82611af8565b610dac576040517f08c379a0000000000000000000000000000000000000000000000000000000008152600401610da390614cd6565b60405180910390fd5b610db5816120ce565b50565b81600e600082815260200190815260200160002060009054906101000a900473ffffffffffffffffffffffffffffffffffffffff1673ffffffffffffffffffffffffffffffffffffffff163373ffffffffffffffffffffffffffffffffffffffff1614610e5a576040517f08c379a0000000000000000000000000000000000000000000000000000000008152600401610e5190614ea5565b60405180910390fd5b600e600082815260200190815260200160002060006101000a81549073ffffffffffffffffffffffffffffffffffffffff0219169055807f7cc135e0cebb02c3480ae5d74d377283180a2601f8f644edf7987b009316c63a60405160405180910390a281601760186000868152602001908152602001600020604051610ee09190614ec5565b908152602001604051809103902081905550610efa610b76565b505050565b60155460165442610f109190614edc565b1115610f265742601681905550610f25610b76565b5b5050565b6000600760009054906101000a900460ff16905090565b600080610f4d836120da565b9050600073ffffffffffffffffffffffffffffffffffffffff168173ffffffffffffffffffffffffffffffffffffffff1603610fbe576040517f08c379a0000000000000000000000000000000000000000000000000000000008152600401610fb590614f5c565b60405180910390fd5b80915050919050565b6000606060155460165442610fdc9190614edc565b1191509250929050565b60008073ffffffffffffffffffffffffffffffffffffffff168273ffffffffffffffffffffffffffffffffffffffff1603611056576040517f08c379a000000000000000000000000000000000000000000000000000000000815260040161104d90614fee565b60405180910390fd5b600360008373ffffffffffffffffffffffffffffffffffffffff1673ffffffffffffffffffffffffffffffffffffffff168152602001908152602001600020549050919050565b601060009054906101000a900473ffffffffffffffffffffffffffffffffffffffff1673ffffffffffffffffffffffffffffffffffffffff163373ffffffffffffffffffffffffffffffffffffffff161461112d576040517f08c379a00000000000000000000000000000000000000000000000000000000081526004016111249061505a565b60405180910390fd5b6000600f60009054906101000a900473ffffffffffffffffffffffffffffffffffffffff16905033600f60006101000a81548173ffffffffffffffffffffffffffffffffffffffff021916908373ffffffffffffffffffffffffffffffffffffffff1602179055506000601060006101000a81548173ffffffffffffffffffffffffffffffffffffffff021916908373ffffffffffffffffffffffffffffffffffffffff1602179055503373ffffffffffffffffffffffffffffffffffffffff168173ffffffffffffffffffffffffffffffffffffffff167f8be0079c531659141344cd1fd0a4f28419497f9722a3daafe3b4186f6b6457e060405160405180910390a350565b7f65d7a28e3265b37a6474929f336521b332c1681b933f6cb9f3376673440d862a61125e81611e86565b611266612117565b50565b6000801b61127681611e86565b600060196000848152602001908152602001600020805461129690614700565b80601f01602080910402602001604051908101604052809291908181526020018280546112c290614700565b801561130f5780601f106112e45761010080835404028352916020019161130f565b820191906000526020600020905b8154815290600101906020018083116112f257829003601f168201915b505050505090506000601782604051611328919061507a565b908152602001604051809103902054905061134b846113468361217a565b612216565b50505050565b6000600f60009054906101000a900473ffffffffffffffffffffffffffffffffffffffff16905090565b6000801b61138881611e86565b6000611392612283565b90508073ffffffffffffffffffffffffffffffffffffffff1663a9059cbb338373ffffffffffffffffffffffffffffffffffffffff166370a08231306040518263ffffffff1660e01b81526004016113ea9190613fb7565b602060405180830381865afa158015611407573d6000803e3d6000fd5b505050506040513d601f19601f8201168201806040525081019061142b91906150a6565b6040518363ffffffff1660e01b81526004016114489291906150d3565b6020604051808303816000875af1158015611467573d6000803e3d6000fd5b505050506040513d601f19601f8201168201806040525081019061148b9190615111565b6114ca576040517f08c379a00000000000000000000000000000000000000000000000000000000081526004016114c19061518a565b60405180910390fd5b5050565b60006008600084815260200190815260200160002060000160008373ffffffffffffffffffffffffffffffffffffffff1673ffffffffffffffffffffffffffffffffffffffff16815260200190815260200160002060009054906101000a900460ff16905092915050565b60155481565b60606001805461154e90614700565b80601f016020809104026020016040519081016040528092919081815260200182805461157a90614700565b80156115c75780601f1061159c576101008083540402835291602001916115c7565b820191906000526020600020905b8154815290600101906020018083116115aa57829003601f168201915b5050505050905090565b6017818051602081018201805184825260208301602085012081835280955050505050506000915090505481565b6000801b81565b61161861161161199c565b83836122ad565b5050565b61162d61162761199c565b83611af8565b61166c576040517f08c379a000000000000000000000000000000000000000000000000000000000815260040161166390614cd6565b60405180910390fd5b61167884848484612419565b50505050565b6018602052806000526040600020600091509050805461169d90614700565b80601f01602080910402602001604051908101604052809291908181526020018280546116c990614700565b80156117165780601f106116eb57610100808354040283529160200191611716565b820191906000526020600020905b8154815290600101906020018083116116f957829003601f168201915b505050505081565b606061172982612475565b9050919050565b6000801b61173d81611e86565b816014908161174c9190614b92565b505050565b600061175d6011611f7b565b90506117696011612587565b816019600083815260200190815260200160002090816117899190614b92565b50600060178360405161179c919061507a565b9081526020016040518091039020819055506117b8838261259d565b6117db8160405180610100016040528060ce8152602001615e5760ce9139612216565b6117e482610990565b50505050565b6117f382610b35565b6117fc81611e86565b6118068383611f89565b505050565b7f65d7a28e3265b37a6474929f336521b332c1681b933f6cb9f3376673440d862a81565b6000600560008473ffffffffffffffffffffffffffffffffffffffff1673ffffffffffffffffffffffffffffffffffffffff16815260200190815260200160002060008373ffffffffffffffffffffffffffffffffffffffff1673ffffffffffffffffffffffffffffffffffffffff16815260200190815260200160002060009054906101000a900460ff16905092915050565b6118cb6125bb565b6118d48161264d565b50565b60007f7965db0b000000000000000000000000000000000000000000000000000000007bffffffffffffffffffffffffffffffffffffffffffffffffffffffff1916827bffffffffffffffffffffffffffffffffffffffffffffffffffffffff1916148061194a57506119498261277b565b5b9050919050565b61195a8161285d565b611999576040517f08c379a000000000000000000000000000000000000000000000000000000000815260040161199090614f5c565b60405180910390fd5b50565b600033905090565b816004600083815260200190815260200160002060006101000a81548173ffffffffffffffffffffffffffffffffffffffff021916908373ffffffffffffffffffffffffffffffffffffffff160217905550808273ffffffffffffffffffffffffffffffffffffffff16611a1783610f41565b73ffffffffffffffffffffffffffffffffffffffff167f8c5be1e5ebec7d5bd14f71427d1e84f3dd0314c0f7b2291e5b200ac8c7c3b92560405160405180910390a45050565b611a65613cae565b611a6d613cae565b611a848585858461289e909392919063ffffffff16565b9150509392505050565b611aa582846080015161294e90919063ffffffff16565b611abc81846080015161294e90919063ffffffff16565b505050565b6000611af0600c60009054906101000a900473ffffffffffffffffffffffffffffffffffffffff168484612973565b905092915050565b600080611b0483610f41565b90508073ffffffffffffffffffffffffffffffffffffffff168473ffffffffffffffffffffffffffffffffffffffff161480611b465750611b45818561182f565b5b80611b8457508373ffffffffffffffffffffffffffffffffffffffff16611b6c84610833565b73ffffffffffffffffffffffffffffffffffffffff16145b91505092915050565b8273ffffffffffffffffffffffffffffffffffffffff16611bad82610f41565b73ffffffffffffffffffffffffffffffffffffffff1614611c03576040517f08c379a0000000000000000000000000000000000000000000000000000000008152600401611bfa9061521c565b60405180910390fd5b600073ffffffffffffffffffffffffffffffffffffffff168273ffffffffffffffffffffffffffffffffffffffff1603611c72576040517f08c379a0000000000000000000000000000000000000000000000000000000008152600401611c69906152ae565b60405180910390fd5b611c7f8383836001612a3f565b8273ffffffffffffffffffffffffffffffffffffffff16611c9f82610f41565b73ffffffffffffffffffffffffffffffffffffffff1614611cf5576040517f08c379a0000000000000000000000000000000000000000000000000000000008152600401611cec9061521c565b60405180910390fd5b6004600082815260200190815260200160002060006101000a81549073ffffffffffffffffffffffffffffffffffffffff02191690556001600360008573ffffffffffffffffffffffffffffffffffffffff1673ffffffffffffffffffffffffffffffffffffffff168152602001908152602001600020600082825403925050819055506001600360008473ffffffffffffffffffffffffffffffffffffffff1673ffffffffffffffffffffffffffffffffffffffff16815260200190815260200160002060008282540192505081905550816002600083815260200190815260200160002060006101000a81548173ffffffffffffffffffffffffffffffffffffffff021916908373ffffffffffffffffffffffffffffffffffffffff160217905550808273ffffffffffffffffffffffffffffffffffffffff168473ffffffffffffffffffffffffffffffffffffffff167fddf252ad1be2c89b69c2b068fc378daa952ba7f163c4a11628f55a4df523b3ef60405160405180910390a4611e818383836001612a59565b505050565b611e9781611e9261199c565b612a5f565b50565b611ea482826114ce565b611f775760016008600084815260200190815260200160002060000160008373ffffffffffffffffffffffffffffffffffffffff1673ffffffffffffffffffffffffffffffffffffffff16815260200190815260200160002060006101000a81548160ff021916908315150217905550611f1c61199c565b73ffffffffffffffffffffffffffffffffffffffff168173ffffffffffffffffffffffffffffffffffffffff16837f2f8788117e7eff1d82e926ec794901d17c78024a50270940304540a733656f0d60405160405180910390a45b5050565b600081600001549050919050565b611f9382826114ce565b156120675760006008600084815260200190815260200160002060000160008373ffffffffffffffffffffffffffffffffffffffff1673ffffffffffffffffffffffffffffffffffffffff16815260200190815260200160002060006101000a81548160ff02191690831515021790555061200c61199c565b73ffffffffffffffffffffffffffffffffffffffff168173ffffffffffffffffffffffffffffffffffffffff16837ff6391f5c32d9c69d2a47ea670b442974b53935d1edc7fd64eb21e047a839171b60405160405180910390a45b5050565b612073612ae4565b6000600760006101000a81548160ff0219169083151502179055507f5db9ee0a495bf2e6ff9c91a7834c1ba4fdd244a5e8aa4e537bd38aeae4b073aa6120b761199c565b6040516120c49190613fb7565b60405180910390a1565b6120d781612b2d565b50565b60006002600083815260200190815260200160002060009054906101000a900473ffffffffffffffffffffffffffffffffffffffff169050919050565b61211f612b80565b6001600760006101000a81548160ff0219169083151502179055507f62e78cea01bee320cd4e420270b5ea74000d11b0c9f74754ebdbfc544b05a25861216361199c565b6040516121709190613fb7565b60405180910390a1565b60606000821015801561218d5750603182105b156121b2576040518060a0016040528060638152602001615df4606391399050612211565b603282101580156121c35750606382105b156121e8576040518060a0016040528060668152602001615d8e606691399050612211565b60648210612210576040518060a0016040528060648152602001615f25606491399050612211565b5b919050565b61221f8261285d565b61225e576040517f08c379a000000000000000000000000000000000000000000000000000000000815260040161225590615340565b60405180910390fd5b8060066000848152602001908152602001600020908161227e9190614b92565b505050565b6000600b60009054906101000a900473ffffffffffffffffffffffffffffffffffffffff16905090565b8173ffffffffffffffffffffffffffffffffffffffff168373ffffffffffffffffffffffffffffffffffffffff160361231b576040517f08c379a0000000000000000000000000000000000000000000000000000000008152600401612312906153ac565b60405180910390fd5b80600560008573ffffffffffffffffffffffffffffffffffffffff1673ffffffffffffffffffffffffffffffffffffffff16815260200190815260200160002060008473ffffffffffffffffffffffffffffffffffffffff1673ffffffffffffffffffffffffffffffffffffffff16815260200190815260200160002060006101000a81548160ff0219169083151502179055508173ffffffffffffffffffffffffffffffffffffffff168373ffffffffffffffffffffffffffffffffffffffff167f17307eab39ab6107e8899845ad3d59bd9653f200f220920489ca2b5937696c318360405161240c9190613e46565b60405180910390a3505050565b612424848484611b8d565b61243084848484612bca565b61246f576040517f08c379a00000000000000000000000000000000000000000000000000000000081526004016124669061543e565b60405180910390fd5b50505050565b606061248082611951565b60006006600084815260200190815260200160002080546124a090614700565b80601f01602080910402602001604051908101604052809291908181526020018280546124cc90614700565b80156125195780601f106124ee57610100808354040283529160200191612519565b820191906000526020600020905b8154815290600101906020018083116124fc57829003601f168201915b50505050509050600061252a612d51565b9050600081510361253f578192505050612582565b60008251111561257457808260405160200161255c92919061545e565b60405160208183030381529060405292505050612582565b61257d84612d68565b925050505b919050565b6001816000016000828254019250508190555050565b6125b7828260405180602001604052806000815250612dd0565b5050565b600f60009054906101000a900473ffffffffffffffffffffffffffffffffffffffff1673ffffffffffffffffffffffffffffffffffffffff163373ffffffffffffffffffffffffffffffffffffffff161461264b576040517f08c379a0000000000000000000000000000000000000000000000000000000008152600401612642906154ce565b60405180910390fd5b565b3373ffffffffffffffffffffffffffffffffffffffff168173ffffffffffffffffffffffffffffffffffffffff16036126bb576040517f08c379a00000000000000000000000000000000000000000000000000000000081526004016126b29061553a565b60405180910390fd5b80601060006101000a81548173ffffffffffffffffffffffffffffffffffffffff021916908373ffffffffffffffffffffffffffffffffffffffff1602179055508073ffffffffffffffffffffffffffffffffffffffff16600f60009054906101000a900473ffffffffffffffffffffffffffffffffffffffff1673ffffffffffffffffffffffffffffffffffffffff167fed8889f560326eb138920d842192f0eb3dd22b4f139c87a2c57538e05bae127860405160405180910390a350565b60007f80ac58cd000000000000000000000000000000000000000000000000000000007bffffffffffffffffffffffffffffffffffffffffffffffffffffffff1916827bffffffffffffffffffffffffffffffffffffffffffffffffffffffff1916148061284657507f5b5e139f000000000000000000000000000000000000000000000000000000007bffffffffffffffffffffffffffffffffffffffffffffffffffffffff1916827bffffffffffffffffffffffffffffffffffffffffffffffffffffffff1916145b80612856575061285582612e2b565b5b9050919050565b60008073ffffffffffffffffffffffffffffffffffffffff1661287f836120da565b73ffffffffffffffffffffffffffffffffffffffff1614159050919050565b6128a6613cae565b6128b68560800151610100612e95565b508385600001818152505082856020019073ffffffffffffffffffffffffffffffffffffffff16908173ffffffffffffffffffffffffffffffffffffffff16815250508185604001907bffffffffffffffffffffffffffffffffffffffffffffffffffffffff191690817bffffffffffffffffffffffffffffffffffffffffffffffffffffffff191681525050849050949350505050565b61295b8260038351612eff565b61296e818361308490919063ffffffff16565b505050565b600080600d5490506001816129889190614d25565b600d819055506000634042994660e01b60008087600001513089604001518760018c60800151600001516040516024016129c9989796959493929190615569565b604051602081830303815290604052907bffffffffffffffffffffffffffffffffffffffffffffffffffffffff19166020820180517bffffffffffffffffffffffffffffffffffffffffffffffffffffffff83818316178352505050509050612a34868386846130a6565b925050509392505050565b612a47612b80565b612a538484848461323b565b50505050565b50505050565b612a6982826114ce565b612ae057612a7681613241565b612a848360001c602061326e565b604051602001612a95929190615686565b6040516020818303038152906040526040517f08c379a0000000000000000000000000000000000000000000000000000000008152600401612ad79190613ef1565b60405180910390fd5b5050565b612aec610f2a565b612b2b576040517f08c379a0000000000000000000000000000000000000000000000000000000008152600401612b229061570c565b60405180910390fd5b565b612b36816134aa565b6000600660008381526020019081526020016000208054612b5690614700565b905014612b7d57600660008281526020019081526020016000206000612b7c9190613d1b565b5b50565b612b88610f2a565b15612bc8576040517f08c379a0000000000000000000000000000000000000000000000000000000008152600401612bbf90615778565b60405180910390fd5b565b6000612beb8473ffffffffffffffffffffffffffffffffffffffff166135f8565b15612d44578373ffffffffffffffffffffffffffffffffffffffff1663150b7a02612c1461199c565b8786866040518563ffffffff1660e01b8152600401612c369493929190615798565b6020604051808303816000875af1925050508015612c7257506040513d601f19601f82011682018060405250810190612c6f91906157f9565b60015b612cf4573d8060008114612ca2576040519150601f19603f3d011682016040523d82523d6000602084013e612ca7565b606091505b506000815103612cec576040517f08c379a0000000000000000000000000000000000000000000000000000000008152600401612ce39061543e565b60405180910390fd5b805181602001fd5b63150b7a0260e01b7bffffffffffffffffffffffffffffffffffffffffffffffffffffffff1916817bffffffffffffffffffffffffffffffffffffffffffffffffffffffff191614915050612d49565b600190505b949350505050565b606060405180602001604052806000815250905090565b6060612d7382611951565b6000612d7d612d51565b90506000815111612d9d5760405180602001604052806000815250612dc8565b80612da78461361b565b604051602001612db892919061545e565b6040516020818303038152906040525b915050919050565b612dda83836136e9565b612de76000848484612bca565b612e26576040517f08c379a0000000000000000000000000000000000000000000000000000000008152600401612e1d9061543e565b60405180910390fd5b505050565b60007f01ffc9a7000000000000000000000000000000000000000000000000000000007bffffffffffffffffffffffffffffffffffffffffffffffffffffffff1916827bffffffffffffffffffffffffffffffffffffffffffffffffffffffff1916149050919050565b612e9d613d5b565b6000602083612eac9190615855565b14612ed857602082612ebe9190615855565b6020612eca9190614edc565b82612ed59190614d25565b91505b81836020018181525050604051808452600081528281016020016040525082905092915050565b60178167ffffffffffffffff1611612f3657612f308160058460ff16901b60ff16178461390690919063ffffffff16565b5061307f565b60ff8167ffffffffffffffff1611612f8c57612f65601860058460ff16901b178461390690919063ffffffff16565b50612f868167ffffffffffffffff166001856139269092919063ffffffff16565b5061307e565b61ffff8167ffffffffffffffff1611612fe357612fbc601960058460ff16901b178461390690919063ffffffff16565b50612fdd8167ffffffffffffffff166002856139269092919063ffffffff16565b5061307d565b63ffffffff8167ffffffffffffffff161161303c57613015601a60058460ff16901b178461390690919063ffffffff16565b506130368167ffffffffffffffff166004856139269092919063ffffffff16565b5061307c565b613059601b60058460ff16901b178461390690919063ffffffff16565b5061307a8167ffffffffffffffff166008856139269092919063ffffffff16565b505b5b5b5b505050565b61308c613d5b565b61309e83846000015151848551613948565b905092915050565b600030846040516020016130bb929190615935565b60405160208183030381529060405280519060200120905084600e600083815260200190815260200160002060006101000a81548173ffffffffffffffffffffffffffffffffffffffff021916908373ffffffffffffffffffffffffffffffffffffffff160217905550807fb5e6e01e79f91267dc17b4e6314d5d4d03593d2ceee0fbb452b750bd70ea5af960405160405180910390a2600b60009054906101000a900473ffffffffffffffffffffffffffffffffffffffff1673ffffffffffffffffffffffffffffffffffffffff16634000aea08685856040518463ffffffff1660e01b81526004016131b193929190615961565b6020604051808303816000875af11580156131d0573d6000803e3d6000fd5b505050506040513d601f19601f820116820180604052508101906131f49190615111565b613233576040517f08c379a000000000000000000000000000000000000000000000000000000000815260040161322a90615a11565b60405180910390fd5b949350505050565b50505050565b60606132678273ffffffffffffffffffffffffffffffffffffffff16601460ff1661326e565b9050919050565b6060600060028360026132819190615a31565b61328b9190614d25565b67ffffffffffffffff8111156132a4576132a3614048565b5b6040519080825280601f01601f1916602001820160405280156132d65781602001600182028036833780820191505090505b5090507f30000000000000000000000000000000000000000000000000000000000000008160008151811061330e5761330d615a73565b5b60200101907effffffffffffffffffffffffffffffffffffffffffffffffffffffffffffff1916908160001a9053507f78000000000000000000000000000000000000000000000000000000000000008160018151811061337257613371615a73565b5b60200101907effffffffffffffffffffffffffffffffffffffffffffffffffffffffffffff1916908160001a905350600060018460026133b29190615a31565b6133bc9190614d25565b90505b600181111561345c577f3031323334353637383961626364656600000000000000000000000000000000600f8616601081106133fe576133fd615a73565b5b1a60f81b82828151811061341557613414615a73565b5b60200101907effffffffffffffffffffffffffffffffffffffffffffffffffffffffffffff1916908160001a905350600485901c94508061345590615aa2565b90506133bf565b50600084146134a0576040517f08c379a000000000000000000000000000000000000000000000000000000000815260040161349790615b17565b60405180910390fd5b8091505092915050565b60006134b582610f41565b90506134c5816000846001612a3f565b6134ce82610f41565b90506004600083815260200190815260200160002060006101000a81549073ffffffffffffffffffffffffffffffffffffffff02191690556001600360008373ffffffffffffffffffffffffffffffffffffffff1673ffffffffffffffffffffffffffffffffffffffff168152602001908152602001600020600082825403925050819055506002600083815260200190815260200160002060006101000a81549073ffffffffffffffffffffffffffffffffffffffff021916905581600073ffffffffffffffffffffffffffffffffffffffff168273ffffffffffffffffffffffffffffffffffffffff167fddf252ad1be2c89b69c2b068fc378daa952ba7f163c4a11628f55a4df523b3ef60405160405180910390a46135f4816000846001612a59565b5050565b6000808273ffffffffffffffffffffffffffffffffffffffff163b119050919050565b60606000600161362a84613a37565b01905060008167ffffffffffffffff81111561364957613648614048565b5b6040519080825280601f01601f19166020018201604052801561367b5781602001600182028036833780820191505090505b509050600082602001820190505b6001156136de578080600190039150507f3031323334353637383961626364656600000000000000000000000000000000600a86061a8153600a85816136d2576136d1615826565b5b04945060008503613689575b819350505050919050565b600073ffffffffffffffffffffffffffffffffffffffff168273ffffffffffffffffffffffffffffffffffffffff1603613758576040517f08c379a000000000000000000000000000000000000000000000000000000000815260040161374f90615b83565b60405180910390fd5b6137618161285d565b156137a1576040517f08c379a000000000000000000000000000000000000000000000000000000000815260040161379890615bef565b60405180910390fd5b6137af600083836001612a3f565b6137b88161285d565b156137f8576040517f08c379a00000000000000000000000000000000000000000000000000000000081526004016137ef90615bef565b60405180910390fd5b6001600360008473ffffffffffffffffffffffffffffffffffffffff1673ffffffffffffffffffffffffffffffffffffffff16815260200190815260200160002060008282540192505081905550816002600083815260200190815260200160002060006101000a81548173ffffffffffffffffffffffffffffffffffffffff021916908373ffffffffffffffffffffffffffffffffffffffff160217905550808273ffffffffffffffffffffffffffffffffffffffff16600073ffffffffffffffffffffffffffffffffffffffff167fddf252ad1be2c89b69c2b068fc378daa952ba7f163c4a11628f55a4df523b3ef60405160405180910390a4613902600083836001612a59565b5050565b61390e613d5b565b61391e8384600001515184613b8a565b905092915050565b61392e613d5b565b61393f848560000151518585613be0565b90509392505050565b613950613d5b565b825182111561395e57600080fd5b8460200151828561396f9190614d25565b11156139a4576139a38560026139948860200151888761398f9190614d25565b613c6e565b61399e9190615a31565b613c8a565b5b6000808651805187602083010193508088870111156139c35787860182525b60208701925050505b60208410613a0a57805182526020826139e59190614d25565b91506020816139f49190614d25565b9050602084613a039190614edc565b93506139cc565b60006001856020036101000a03905080198251168184511681811785525050508692505050949350505050565b600080600090507a184f03e93ff9f4daa797ed6e38ed64bf6a1f0100000000000000008310613a95577a184f03e93ff9f4daa797ed6e38ed64bf6a1f0100000000000000008381613a8b57613a8a615826565b5b0492506040810190505b6d04ee2d6d415b85acef81000000008310613ad2576d04ee2d6d415b85acef81000000008381613ac857613ac7615826565b5b0492506020810190505b662386f26fc100008310613b0157662386f26fc100008381613af757613af6615826565b5b0492506010810190505b6305f5e1008310613b2a576305f5e1008381613b2057613b1f615826565b5b0492506008810190505b6127108310613b4f576127108381613b4557613b44615826565b5b0492506004810190505b60648310613b725760648381613b6857613b67615826565b5b0492506002810190505b600a8310613b81576001810190505b80915050919050565b613b92613d5b565b83602001518310613bb857613bb78460028660200151613bb29190615a31565b613c8a565b5b83518051602085830101848153818603613bd3576001820183525b5050508390509392505050565b613be8613d5b565b84602001518483613bf99190614d25565b1115613c2157613c208560028685613c119190614d25565b613c1b9190615a31565b613c8a565b5b6000600183610100613c339190615d42565b613c3d9190614edc565b90508551838682010185831982511617815281518588011115613c605784870182525b505085915050949350505050565b600081831115613c8057829050613c84565b8190505b92915050565b600082600001519050613c9d8383612e95565b50613ca88382613084565b50505050565b6040518060a0016040528060008019168152602001600073ffffffffffffffffffffffffffffffffffffffff16815260200160007bffffffffffffffffffffffffffffffffffffffffffffffffffffffff1916815260200160008152602001613d15613d5b565b81525090565b508054613d2790614700565b6000825580601f10613d395750613d58565b601f016020900490600052602060002090810190613d579190613d75565b5b50565b604051806040016040528060608152602001600081525090565b5b80821115613d8e576000816000905550600101613d76565b5090565b6000604051905090565b600080fd5b600080fd5b60007fffffffff0000000000000000000000000000000000000000000000000000000082169050919050565b613ddb81613da6565b8114613de657600080fd5b50565b600081359050613df881613dd2565b92915050565b600060208284031215613e1457613e13613d9c565b5b6000613e2284828501613de9565b91505092915050565b60008115159050919050565b613e4081613e2b565b82525050565b6000602082019050613e5b6000830184613e37565b92915050565b600081519050919050565b600082825260208201905092915050565b60005b83811015613e9b578082015181840152602081019050613e80565b60008484015250505050565b6000601f19601f8301169050919050565b6000613ec382613e61565b613ecd8185613e6c565b9350613edd818560208601613e7d565b613ee681613ea7565b840191505092915050565b60006020820190508181036000830152613f0b8184613eb8565b905092915050565b6000819050919050565b613f2681613f13565b8114613f3157600080fd5b50565b600081359050613f4381613f1d565b92915050565b600060208284031215613f5f57613f5e613d9c565b5b6000613f6d84828501613f34565b91505092915050565b600073ffffffffffffffffffffffffffffffffffffffff82169050919050565b6000613fa182613f76565b9050919050565b613fb181613f96565b82525050565b6000602082019050613fcc6000830184613fa8565b92915050565b613fdb81613f96565b8114613fe657600080fd5b50565b600081359050613ff881613fd2565b92915050565b6000806040838503121561401557614014613d9c565b5b600061402385828601613fe9565b925050602061403485828601613f34565b9150509250929050565b600080fd5b600080fd5b7f4e487b7100000000000000000000000000000000000000000000000000000000600052604160045260246000fd5b61408082613ea7565b810181811067ffffffffffffffff8211171561409f5761409e614048565b5b80604052505050565b60006140b2613d92565b90506140be8282614077565b919050565b600067ffffffffffffffff8211156140de576140dd614048565b5b6140e782613ea7565b9050602081019050919050565b82818337600083830152505050565b6000614116614111846140c3565b6140a8565b90508281526020810184848401111561413257614131614043565b5b61413d8482856140f4565b509392505050565b600082601f83011261415a5761415961403e565b5b813561416a848260208601614103565b91505092915050565b60006020828403121561418957614188613d9c565b5b600082013567ffffffffffffffff8111156141a7576141a6613da1565b5b6141b384828501614145565b91505092915050565b6000819050919050565b6141cf816141bc565b82525050565b60006020820190506141ea60008301846141c6565b92915050565b60008060006060848603121561420957614208613d9c565b5b600061421786828701613fe9565b935050602061422886828701613fe9565b925050604061423986828701613f34565b9150509250925092565b61424c816141bc565b811461425757600080fd5b50565b60008135905061426981614243565b92915050565b60006020828403121561428557614284613d9c565b5b60006142938482850161425a565b91505092915050565b600080604083850312156142b3576142b2613d9c565b5b60006142c18582860161425a565b92505060206142d285828601613fe9565b9150509250929050565b6142e581613f13565b82525050565b600060208201905061430060008301846142dc565b92915050565b6000806040838503121561431d5761431c613d9c565b5b600061432b8582860161425a565b925050602061433c85828601613f34565b9150509250929050565b600080fd5b600080fd5b60008083601f8401126143665761436561403e565b5b8235905067ffffffffffffffff81111561438357614382614346565b5b60208301915083600182028301111561439f5761439e61434b565b5b9250929050565b600080602083850312156143bd576143bc613d9c565b5b600083013567ffffffffffffffff8111156143db576143da613da1565b5b6143e785828601614350565b92509250509250929050565b600081519050919050565b600082825260208201905092915050565b600061441a826143f3565b61442481856143fe565b9350614434818560208601613e7d565b61443d81613ea7565b840191505092915050565b600060408201905061445d6000830185613e37565b818103602083015261446f818461440f565b90509392505050565b60006020828403121561448e5761448d613d9c565b5b600061449c84828501613fe9565b91505092915050565b6144ae81613e2b565b81146144b957600080fd5b50565b6000813590506144cb816144a5565b92915050565b600080604083850312156144e8576144e7613d9c565b5b60006144f685828601613fe9565b9250506020614507858286016144bc565b9150509250929050565b600067ffffffffffffffff82111561452c5761452b614048565b5b61453582613ea7565b9050602081019050919050565b600061455561455084614511565b6140a8565b90508281526020810184848401111561457157614570614043565b5b61457c8482856140f4565b509392505050565b600082601f8301126145995761459861403e565b5b81356145a9848260208601614542565b91505092915050565b600080600080608085870312156145cc576145cb613d9c565b5b60006145da87828801613fe9565b94505060206145eb87828801613fe9565b93505060406145fc87828801613f34565b925050606085013567ffffffffffffffff81111561461d5761461c613da1565b5b61462987828801614584565b91505092959194509250565b6000806040838503121561464c5761464b613d9c565b5b600061465a85828601613fe9565b925050602083013567ffffffffffffffff81111561467b5761467a613da1565b5b61468785828601614145565b9150509250929050565b600080604083850312156146a8576146a7613d9c565b5b60006146b685828601613fe9565b92505060206146c785828601613fe9565b9150509250929050565b7f4e487b7100000000000000000000000000000000000000000000000000000000600052602260045260246000fd5b6000600282049050600182168061471857607f821691505b60208210810361472b5761472a6146d1565b5b50919050565b7f4552433732313a20617070726f76616c20746f2063757272656e74206f776e6560008201527f7200000000000000000000000000000000000000000000000000000000000000602082015250565b600061478d602183613e6c565b915061479882614731565b604082019050919050565b600060208201905081810360008301526147bc81614780565b9050919050565b7f4552433732313a20617070726f76652063616c6c6572206973206e6f7420746f60008201527f6b656e206f776e6572206f7220617070726f76656420666f7220616c6c000000602082015250565b600061481f603d83613e6c565b915061482a826147c3565b604082019050919050565b6000602082019050818103600083015261484e81614812565b9050919050565b600081905092915050565b7f68747470733a2f2f6170692e776171692e696e666f2f666565642f0000000000600082015250565b6000614896601b83614855565b91506148a182614860565b601b82019050919050565b60006148b782613e61565b6148c18185614855565b93506148d1818560208601613e7d565b80840191505092915050565b7f2f3f746f6b656e3d000000000000000000000000000000000000000000000000600082015250565b6000614913600883614855565b915061491e826148dd565b600882019050919050565b60008190508160005260206000209050919050565b6000815461494b81614700565b6149558186614855565b945060018216600081146149705760018114614985576149b8565b60ff19831686528115158202860193506149b8565b61498e85614929565b60005b838110156149b057815481890152600182019150602081019050614991565b838801955050505b50505092915050565b60006149cc82614889565b91506149d882856148ac565b91506149e382614906565b91506149ef828461493e565b91508190509392505050565b60006020601f8301049050919050565b600082821b905092915050565b600060088302614a487fffffffffffffffffffffffffffffffffffffffffffffffffffffffffffffffff82614a0b565b614a528683614a0b565b95508019841693508086168417925050509392505050565b6000819050919050565b6000614a8f614a8a614a8584613f13565b614a6a565b613f13565b9050919050565b6000819050919050565b614aa983614a74565b614abd614ab582614a96565b848454614a18565b825550505050565b600090565b614ad2614ac5565b614add818484614aa0565b505050565b5b81811015614b0157614af6600082614aca565b600181019050614ae3565b5050565b601f821115614b4657614b1781614929565b614b20846149fb565b81016020851015614b2f578190505b614b43614b3b856149fb565b830182614ae2565b50505b505050565b600082821c905092915050565b6000614b6960001984600802614b4b565b1980831691505092915050565b6000614b828383614b58565b9150826002028217905092915050565b614b9b82613e61565b67ffffffffffffffff811115614bb457614bb3614048565b5b614bbe8254614700565b614bc9828285614b05565b600060209050601f831160018114614bfc5760008415614bea578287015190505b614bf48582614b76565b865550614c5c565b601f198416614c0a86614929565b60005b82811015614c3257848901518255600182019150602085019450602081019050614c0d565b86831015614c4f5784890151614c4b601f891682614b58565b8355505b6001600288020188555050505b505050505050565b7f4552433732313a2063616c6c6572206973206e6f7420746f6b656e206f776e6560008201527f72206f7220617070726f76656400000000000000000000000000000000000000602082015250565b6000614cc0602d83613e6c565b9150614ccb82614c64565b604082019050919050565b60006020820190508181036000830152614cef81614cb3565b9050919050565b7f4e487b7100000000000000000000000000000000000000000000000000000000600052601160045260246000fd5b6000614d3082613f13565b9150614d3b83613f13565b9250828201905080821115614d5357614d52614cf6565b5b92915050565b6000614d6482613f13565b91507fffffffffffffffffffffffffffffffffffffffffffffffffffffffffffffffff8203614d9657614d95614cf6565b5b600182019050919050565b7f416363657373436f6e74726f6c3a2063616e206f6e6c792072656e6f756e636560008201527f20726f6c657320666f722073656c660000000000000000000000000000000000602082015250565b6000614dfd602f83613e6c565b9150614e0882614da1565b604082019050919050565b60006020820190508181036000830152614e2c81614df0565b9050919050565b7f536f75726365206d75737420626520746865206f7261636c65206f662074686560008201527f2072657175657374000000000000000000000000000000000000000000000000602082015250565b6000614e8f602883613e6c565b9150614e9a82614e33565b604082019050919050565b60006020820190508181036000830152614ebe81614e82565b9050919050565b6000614ed1828461493e565b915081905092915050565b6000614ee782613f13565b9150614ef283613f13565b9250828203905081811115614f0a57614f09614cf6565b5b92915050565b7f4552433732313a20696e76616c696420746f6b656e2049440000000000000000600082015250565b6000614f46601883613e6c565b9150614f5182614f10565b602082019050919050565b60006020820190508181036000830152614f7581614f39565b9050919050565b7f4552433732313a2061646472657373207a65726f206973206e6f74206120766160008201527f6c6964206f776e65720000000000000000000000000000000000000000000000602082015250565b6000614fd8602983613e6c565b9150614fe382614f7c565b604082019050919050565b6000602082019050818103600083015261500781614fcb565b9050919050565b7f4d7573742062652070726f706f736564206f776e657200000000000000000000600082015250565b6000615044601683613e6c565b915061504f8261500e565b602082019050919050565b6000602082019050818103600083015261507381615037565b9050919050565b600061508682846148ac565b915081905092915050565b6000815190506150a081613f1d565b92915050565b6000602082840312156150bc576150bb613d9c565b5b60006150ca84828501615091565b91505092915050565b60006040820190506150e86000830185613fa8565b6150f560208301846142dc565b9392505050565b60008151905061510b816144a5565b92915050565b60006020828403121561512757615126613d9c565b5b6000615135848285016150fc565b91505092915050565b7f556e61626c6520746f207472616e736665720000000000000000000000000000600082015250565b6000615174601283613e6c565b915061517f8261513e565b602082019050919050565b600060208201905081810360008301526151a381615167565b9050919050565b7f4552433732313a207472616e736665722066726f6d20696e636f72726563742060008201527f6f776e6572000000000000000000000000000000000000000000000000000000602082015250565b6000615206602583613e6c565b9150615211826151aa565b604082019050919050565b60006020820190508181036000830152615235816151f9565b9050919050565b7f4552433732313a207472616e7366657220746f20746865207a65726f2061646460008201527f7265737300000000000000000000000000000000000000000000000000000000602082015250565b6000615298602483613e6c565b91506152a38261523c565b604082019050919050565b600060208201905081810360008301526152c78161528b565b9050919050565b7f45524337323155524953746f726167653a2055524920736574206f66206e6f6e60008201527f6578697374656e7420746f6b656e000000000000000000000000000000000000602082015250565b600061532a602e83613e6c565b9150615335826152ce565b604082019050919050565b600060208201905081810360008301526153598161531d565b9050919050565b7f4552433732313a20617070726f766520746f2063616c6c657200000000000000600082015250565b6000615396601983613e6c565b91506153a182615360565b602082019050919050565b600060208201905081810360008301526153c581615389565b9050919050565b7f4552433732313a207472616e7366657220746f206e6f6e20455243373231526560008201527f63656976657220696d706c656d656e7465720000000000000000000000000000602082015250565b6000615428603283613e6c565b9150615433826153cc565b604082019050919050565b600060208201905081810360008301526154578161541b565b9050919050565b600061546a82856148ac565b915061547682846148ac565b91508190509392505050565b7f4f6e6c792063616c6c61626c65206279206f776e657200000000000000000000600082015250565b60006154b8601683613e6c565b91506154c382615482565b602082019050919050565b600060208201905081810360008301526154e7816154ab565b9050919050565b7f43616e6e6f74207472616e7366657220746f2073656c66000000000000000000600082015250565b6000615524601783613e6c565b915061552f826154ee565b602082019050919050565b6000602082019050818103600083015261555381615517565b9050919050565b61556381613da6565b82525050565b60006101008201905061557f600083018b613fa8565b61558c602083018a6142dc565b61559960408301896141c6565b6155a66060830188613fa8565b6155b3608083018761555a565b6155c060a08301866142dc565b6155cd60c08301856142dc565b81810360e08301526155df818461440f565b90509998505050505050505050565b7f416363657373436f6e74726f6c3a206163636f756e7420000000000000000000600082015250565b6000615624601783614855565b915061562f826155ee565b601782019050919050565b7f206973206d697373696e6720726f6c6520000000000000000000000000000000600082015250565b6000615670601183614855565b915061567b8261563a565b601182019050919050565b600061569182615617565b915061569d82856148ac565b91506156a882615663565b91506156b482846148ac565b91508190509392505050565b7f5061757361626c653a206e6f7420706175736564000000000000000000000000600082015250565b60006156f6601483613e6c565b9150615701826156c0565b602082019050919050565b60006020820190508181036000830152615725816156e9565b9050919050565b7f5061757361626c653a2070617573656400000000000000000000000000000000600082015250565b6000615762601083613e6c565b915061576d8261572c565b602082019050919050565b6000602082019050818103600083015261579181615755565b9050919050565b60006080820190506157ad6000830187613fa8565b6157ba6020830186613fa8565b6157c760408301856142dc565b81810360608301526157d9818461440f565b905095945050505050565b6000815190506157f381613dd2565b92915050565b60006020828403121561580f5761580e613d9c565b5b600061581d848285016157e4565b91505092915050565b7f4e487b7100000000000000000000000000000000000000000000000000000000600052601260045260246000fd5b600061586082613f13565b915061586b83613f13565b92508261587b5761587a615826565b5b828206905092915050565b60006158a161589c61589784613f76565b614a6a565b613f76565b9050919050565b60006158b382615886565b9050919050565b60006158c5826158a8565b9050919050565b60008160601b9050919050565b60006158e4826158cc565b9050919050565b60006158f6826158d9565b9050919050565b61590e615909826158ba565b6158eb565b82525050565b6000819050919050565b61592f61592a82613f13565b615914565b82525050565b600061594182856158fd565b601482019150615951828461591e565b6020820191508190509392505050565b60006060820190506159766000830186613fa8565b61598360208301856142dc565b8181036040830152615995818461440f565b9050949350505050565b7f756e61626c6520746f207472616e73666572416e6443616c6c20746f206f726160008201527f636c650000000000000000000000000000000000000000000000000000000000602082015250565b60006159fb602383613e6c565b9150615a068261599f565b604082019050919050565b60006020820190508181036000830152615a2a816159ee565b9050919050565b6000615a3c82613f13565b9150615a4783613f13565b9250828202615a5581613f13565b91508282048414831517615a6c57615a6b614cf6565b5b5092915050565b7f4e487b7100000000000000000000000000000000000000000000000000000000600052603260045260246000fd5b6000615aad82613f13565b915060008203615ac057615abf614cf6565b5b600182039050919050565b7f537472696e67733a20686578206c656e67746820696e73756666696369656e74600082015250565b6000615b01602083613e6c565b9150615b0c82615acb565b602082019050919050565b60006020820190508181036000830152615b3081615af4565b9050919050565b7f4552433732313a206d696e7420746f20746865207a65726f2061646472657373600082015250565b6000615b6d602083613e6c565b9150615b7882615b37565b602082019050919050565b60006020820190508181036000830152615b9c81615b60565b9050919050565b7f4552433732313a20746f6b656e20616c7265616479206d696e74656400000000600082015250565b6000615bd9601c83613e6c565b9150615be482615ba3565b602082019050919050565b60006020820190508181036000830152615c0881615bcc565b9050919050565b60008160011c9050919050565b6000808291508390505b6001851115615c6657808604811115615c4257615c41614cf6565b5b6001851615615c515780820291505b8081029050615c5f85615c0f565b9450615c26565b94509492505050565b600082615c7f5760019050615d3b565b81615c8d5760009050615d3b565b8160018114615ca35760028114615cad57615cdc565b6001915050615d3b565b60ff841115615cbf57615cbe614cf6565b5b8360020a915084821115615cd657615cd5614cf6565b5b50615d3b565b5060208310610133831016604e8410600b8410161715615d115782820a905083811115615d0c57615d0b614cf6565b5b615d3b565b615d1e8484846001615c1c565b92509050818404811115615d3557615d34614cf6565b5b81810290505b9392505050565b6000615d4d82613f13565b9150615d5883613f13565b9250615d857fffffffffffffffffffffffffffffffffffffffffffffffffffffffffffffffff8484615c6f565b90509291505056fe68747470733a2f2f676174657761792e70696e6174612e636c6f75642f697066732f516d5041656e4c554b625a4752365159646f46554e653253555270316e3364635770327066713875744b44536a662f6d656469756d2d706f6c6c7574696f6e2e6a736f6e68747470733a2f2f676174657761792e70696e6174612e636c6f75642f697066732f516d5041656e4c554b625a4752365159646f46554e653253555270316e3364635770327066713875744b44536a662f6c6f772d706f6c6c7574696f6e2e6a736f6e68747470733a2f2f676174657761792e70696e6174612e636c6f75642f697066732f516d58326b6452514543766242784a626151513546696765474138334a6f554739624738554452564652783653743f5f676c3d312a3279376f76342a5f67612a4e6d5533597a46684e6a45745a6d566c5a6930304d7a4a6d4c546c6c4e7a51744d546b35596d55325a444e684f4441312a5f67615f35524d505847313454452a4d5459334f4467324e544d324e79347a4c6a45754d5459334f4467324e6a51344d6934304e4334774c6a412e68747470733a2f2f676174657761792e70696e6174612e636c6f75642f697066732f516d5041656e4c554b625a4752365159646f46554e653253555270316e3364635770327066713875744b44536a662f686967682d706f6c6c7574696f6e2e6a736f6ea26469706673582212208eb07724620aea77356244373efd315f0b901e3b987dc95617b473a05a2a099f64736f6c63430008130033",
  "immutableReferences": {},
  "source": "// SPDX-License-Identifier: MIT\npragma solidity ^0.8.9;\nimport \"@openzeppelin/contracts/token/ERC721/ERC721.sol\";\nimport \"@openzeppelin/contracts/token/ERC721/extensions/ERC721URIStorage.sol\";\nimport \"@openzeppelin/contracts/security/Pausable.sol\";\nimport \"@openzeppelin/contracts/access/AccessControl.sol\";\nimport \"@openzeppelin/contracts/token/ERC721/extensions/ERC721Burnable.sol\";\nimport \"@openzeppelin/contracts/utils/Counters.sol\";\n\nimport \"@chainlink/contracts/src/v0.8/ChainlinkClient.sol\";\nimport \"@chainlink/contracts/src/v0.8/ConfirmedOwner.sol\";\nimport \"@chainlink/contracts/src/v0.8/AutomationCompatible.sol\";\n\ncontract DynamicWeatherCard is\n    ERC721,\n    ERC721URIStorage,\n    Pausable,\n    AccessControl,\n    ERC721Burnable,\n    ChainlinkClient,\n    ConfirmedOwner,\n    AutomationCompatibleInterface\n{\n    using Chainlink for Chainlink.Request;\n    using Counters for Counters.Counter;\n\n    bytes32 public constant PAUSER_ROLE = keccak256(\"PAUSER_ROLE\");\n    Counters.Counter private _tokenIdCounter;\n\n    bytes32 private jobId;\n    uint256 private fee;\n    string private waqiToken;\n    uint256 public interval;\n    uint256 public lastTimeStamp;\n\n    mapping(string => uint256) public _cityToPollution;\n    mapping(bytes32 => string) public _requestIdToCity;\n    mapping(uint256 => string) public _tokenIdToCity;\n\n    constructor(\n        string memory token\n    ) ERC721(\"DynamicWeatherCard\", \"DWC\") ConfirmedOwner(msg.sender) {\n        _grantRole(DEFAULT_ADMIN_ROLE, msg.sender);\n        _grantRole(PAUSER_ROLE, msg.sender);\n        setWaqiToken(token);\n        setChainlinkToken(0x326C977E6efc84E512bB9C30f76E30c160eD06FB);\n        setChainlinkOracle(0x40193c8518BB267228Fc409a613bDbD8eC5a97b3);\n        jobId = \"ca98366cc7314957b8c012c72f05aeeb\";\n        fee = (1 * LINK_DIVISIBILITY) / 10;\n        interval = 86400; // Every day\n        lastTimeStamp = block.timestamp;\n    }\n\n    function setWaqiToken(\n        string memory token\n    ) public onlyRole(DEFAULT_ADMIN_ROLE) {\n        waqiToken = token;\n    }\n\n    function pause() public onlyRole(PAUSER_ROLE) {\n        _pause();\n    }\n\n    function unpause() public onlyRole(PAUSER_ROLE) {\n        _unpause();\n    }\n\n    function safeMint(address to, string memory city) public {\n        uint256 tokenId = _tokenIdCounter.current();\n        _tokenIdCounter.increment();\n        _tokenIdToCity[tokenId] = city;\n        _cityToPollution[city] = 0; // Default Temporary value\n        _safeMint(to, tokenId);\n        _setTokenURI(\n            tokenId,\n            \"https://gateway.pinata.cloud/ipfs/QmX2kdRQECvbBxJbaQQ5FigeGA83JoUG9bG8UDRVFRx6St?_gl=1*2y7ov4*_ga*NmU3YzFhNjEtZmVlZi00MzJmLTllNzQtMTk5YmU2ZDNhODA1*_ga_5RMPXG14TE*MTY3ODg2NTM2Ny4zLjEuMTY3ODg2NjQ4Mi40NC4wLjA.\"\n        );\n        requestPollutionData(city);\n    }\n\n    function _getMetadata(\n        uint256 _pollution\n    ) private pure returns (string memory) {\n        if (_pollution >= 0 && _pollution < 49)\n            return\n                \"https://gateway.pinata.cloud/ipfs/QmPAenLUKbZGR6QYdoFUNe2SURp1n3dcWp2pfq8utKDSjf/low-pollution.json\";\n        else if (_pollution >= 50 && _pollution < 99)\n            return\n                \"https://gateway.pinata.cloud/ipfs/QmPAenLUKbZGR6QYdoFUNe2SURp1n3dcWp2pfq8utKDSjf/medium-pollution.json\";\n        else if (_pollution >= 100)\n            return\n                \"https://gateway.pinata.cloud/ipfs/QmPAenLUKbZGR6QYdoFUNe2SURp1n3dcWp2pfq8utKDSjf/high-pollution.json\";\n    }\n\n    function requestPollutionData(\n        string memory _city\n    ) public returns (bytes32) {\n        Chainlink.Request memory req = buildChainlinkRequest(\n            jobId,\n            address(this),\n            this.fulfill.selector\n        );\n\n        string memory url = string(\n            abi.encodePacked(\n                \"https://api.waqi.info/feed/\",\n                _city,\n                \"/?token=\",\n                waqiToken\n            )\n        );\n        req.add(\"get\", url);\n        req.add(\"path\", \"data,aqi\");\n\n        bytes32 requestId = sendChainlinkRequest(req, fee);\n        _requestIdToCity[requestId] = _city;\n\n        return requestId;\n    }\n\n    function fulfill(\n        bytes32 _requestId,\n        uint256 _pollution\n    ) public recordChainlinkFulfillment(_requestId) {\n        _cityToPollution[_requestIdToCity[_requestId]] = _pollution;\n        updateTokens();\n    }\n\n    function checkUpkeep(\n        bytes calldata\n    ) external view override returns (bool upkeepNeeded, bytes memory) {\n        upkeepNeeded = (block.timestamp - lastTimeStamp) > interval;\n    }\n\n    function performUpkeep(bytes calldata) external override {\n        if ((block.timestamp - lastTimeStamp) > interval) {\n            lastTimeStamp = block.timestamp;\n            updateTokens();\n        }\n    }\n\n    function withdrawLink() public onlyRole(DEFAULT_ADMIN_ROLE) {\n        LinkTokenInterface link = LinkTokenInterface(chainlinkTokenAddress());\n        require(\n            link.transfer(msg.sender, link.balanceOf(address(this))),\n            \"Unable to transfer\"\n        );\n    }\n\n    function updateTokens() public onlyRole(DEFAULT_ADMIN_ROLE) {\n        uint256 numberOfExistingTokens = _tokenIdCounter.current();\n        uint256 currentIndex = 0;\n        for (uint256 i = 1; i < numberOfExistingTokens + 1; i++) {\n            updateToken(currentIndex);\n            currentIndex += 1;\n        }\n    }\n\n    function updateToken(uint256 tokenId) public onlyRole(DEFAULT_ADMIN_ROLE) {\n        string memory city = _tokenIdToCity[tokenId];\n        uint256 pollution = _cityToPollution[city];\n        _setTokenURI(tokenId, _getMetadata(pollution));\n    }\n\n    function _beforeTokenTransfer(\n        address from,\n        address to,\n        uint256 tokenId,\n        uint256 batchSize\n    ) internal override whenNotPaused {\n        super._beforeTokenTransfer(from, to, tokenId, batchSize);\n    }\n\n    function _burn(\n        uint256 tokenId\n    ) internal override(ERC721, ERC721URIStorage) {\n        super._burn(tokenId);\n    }\n\n    function tokenURI(\n        uint256 tokenId\n    ) public view override(ERC721, ERC721URIStorage) returns (string memory) {\n        return super.tokenURI(tokenId);\n    }\n\n    function supportsInterface(\n        bytes4 interfaceId\n    ) public view override(ERC721, AccessControl) returns (bool) {\n        return super.supportsInterface(interfaceId);\n    }\n}\n",
  "sourcePath": "/Users/sob/Documents/Wossh Dev/weather-nft/contracts/DynamicWeatherCard.sol",
  "compiler": {
    "name": "solc",
    "version": "0.8.19+commit.7dd6d404.Emscripten.clang"
  },
  "schemaVersion": "3.4.3",
  "updatedAt": "2023-03-22T03:33:00.338Z",
  "networkType": "ethereum",
  "devdoc": {
    "events": {
      "Approval(address,address,uint256)": {
        "details": "Emitted when `owner` enables `approved` to manage the `tokenId` token."
      },
      "ApprovalForAll(address,address,bool)": {
        "details": "Emitted when `owner` enables or disables (`approved`) `operator` to manage all of its assets."
      },
      "Paused(address)": {
        "details": "Emitted when the pause is triggered by `account`."
      },
      "RoleAdminChanged(bytes32,bytes32,bytes32)": {
        "details": "Emitted when `newAdminRole` is set as ``role``'s admin role, replacing `previousAdminRole` `DEFAULT_ADMIN_ROLE` is the starting admin for all roles, despite {RoleAdminChanged} not being emitted signaling this. _Available since v3.1._"
      },
      "RoleGranted(bytes32,address,address)": {
        "details": "Emitted when `account` is granted `role`. `sender` is the account that originated the contract call, an admin role bearer except when using {AccessControl-_setupRole}."
      },
      "RoleRevoked(bytes32,address,address)": {
        "details": "Emitted when `account` is revoked `role`. `sender` is the account that originated the contract call:   - if using `revokeRole`, it is the admin role bearer   - if using `renounceRole`, it is the role bearer (i.e. `account`)"
      },
      "Transfer(address,address,uint256)": {
        "details": "Emitted when `tokenId` token is transferred from `from` to `to`."
      },
      "Unpaused(address)": {
        "details": "Emitted when the pause is lifted by `account`."
      }
    },
    "kind": "dev",
    "methods": {
      "approve(address,uint256)": {
        "details": "See {IERC721-approve}."
      },
      "balanceOf(address)": {
        "details": "See {IERC721-balanceOf}."
      },
      "burn(uint256)": {
        "details": "Burns `tokenId`. See {ERC721-_burn}. Requirements: - The caller must own `tokenId` or be an approved operator."
      },
      "getApproved(uint256)": {
        "details": "See {IERC721-getApproved}."
      },
      "getRoleAdmin(bytes32)": {
        "details": "Returns the admin role that controls `role`. See {grantRole} and {revokeRole}. To change a role's admin, use {_setRoleAdmin}."
      },
      "grantRole(bytes32,address)": {
        "details": "Grants `role` to `account`. If `account` had not been already granted `role`, emits a {RoleGranted} event. Requirements: - the caller must have ``role``'s admin role. May emit a {RoleGranted} event."
      },
      "hasRole(bytes32,address)": {
        "details": "Returns `true` if `account` has been granted `role`."
      },
      "isApprovedForAll(address,address)": {
        "details": "See {IERC721-isApprovedForAll}."
      },
      "name()": {
        "details": "See {IERC721Metadata-name}."
      },
      "ownerOf(uint256)": {
        "details": "See {IERC721-ownerOf}."
      },
      "paused()": {
        "details": "Returns true if the contract is paused, and false otherwise."
      },
      "renounceRole(bytes32,address)": {
        "details": "Revokes `role` from the calling account. Roles are often managed via {grantRole} and {revokeRole}: this function's purpose is to provide a mechanism for accounts to lose their privileges if they are compromised (such as when a trusted device is misplaced). If the calling account had been revoked `role`, emits a {RoleRevoked} event. Requirements: - the caller must be `account`. May emit a {RoleRevoked} event."
      },
      "revokeRole(bytes32,address)": {
        "details": "Revokes `role` from `account`. If `account` had been granted `role`, emits a {RoleRevoked} event. Requirements: - the caller must have ``role``'s admin role. May emit a {RoleRevoked} event."
      },
      "safeTransferFrom(address,address,uint256)": {
        "details": "See {IERC721-safeTransferFrom}."
      },
      "safeTransferFrom(address,address,uint256,bytes)": {
        "details": "See {IERC721-safeTransferFrom}."
      },
      "setApprovalForAll(address,bool)": {
        "details": "See {IERC721-setApprovalForAll}."
      },
      "symbol()": {
        "details": "See {IERC721Metadata-symbol}."
      },
      "transferFrom(address,address,uint256)": {
        "details": "See {IERC721-transferFrom}."
      }
    },
    "version": 1
  },
  "userdoc": {
    "kind": "user",
    "methods": {
      "acceptOwnership()": {
        "notice": "Allows an ownership transfer to be completed by the recipient."
      },
      "owner()": {
        "notice": "Get the current owner"
      },
      "transferOwnership(address)": {
        "notice": "Allows an owner to begin transferring ownership to a new address, pending."
      }
    },
    "version": 1
  }
}